:100000000C942A000C9447000C9447000C94470071
:100010000C9447000C9447000C941C070C94470068
:100020000C9447000C9447000C94D2060C94AB0639
:100030000C9447000C9447000C9447000C94470024
:100040000C94EF040C9447000C9447000C94470068
:100050000C94470011241FBECFE5D8E0DEBFCDBF12
:1000600011E0A0E6B0E0E6EEF1E102C005900D92ED
:10007000A638B107D9F721E0A6E8B1E001C01D928A
:10008000AE38B207E1F70E94CF040C94F1080C944B
:100090000000CF93DF93CDB7DEB7E8970FB6F894A3
:1000A000DEBF0FBECDBF88E0E0E7F0E0DE011196D5
:1000B00001900D928A95E1F788E0E8E7F0E0DE0133
:1000C000199601900D928A95E1F788E0E0E8F0E05A
:1000D000DE01519601900D928A95E1F788E0E8E8FB
:1000E000F0E0DE01599601900D928A95E1F788E0E3
:1000F000E0E9F0E0DE01919601900D928A95E1F73A
:1001000088E0E8E9F0E0DE01999601900D928A9589
:10011000E1F78E010F5C1F4F88E0F80111928A957C
:10012000E9F760E082E00E94C40461E082E00E949E
:10013000C40441E062E082E00E94220541E063E005
:1001400082E00E94220541E065E082E00E942205F3
:1001500040E064E082E00E94220541E065E083E047
:100160000E9422058EE78ABB41E061E080E00E94A8
:10017000220541E062E080E00E9422050E94D20355
:10018000BE016F5F7F4F80E00E940704BE01675F82
:100190007F4F81E00E940704BE016F5E7F4F82E0C7
:1001A0000E940704BE01675E7F4F83E00E94070440
:1001B000BE016F5D7F4F84E00E940704B80185E0B7
:1001C0000E940704BE01675D7F4F86E00E9407041E
:1001D0000E94980280EA90E00E94F40360E081E0CF
:1001E0000E94280487E00E94D20480E00E94D2048A
:1001F0000E94F90687EB9BE00E94190760E082E00D
:100200000E94C80400E010E0FF24F394E12C02C037
:1002100000E010E08FEF8F0D833008F065C10E9481
:10022000EA02C82ED12C8D3319F08F3F99F33EC1CD
:100230000237114109F0F6C081E00E94A00380EB73
:1002400090E00E94F40368E081E00E94280481E0CD
:100250000E94B90364EF71E080E090E00E947406B0
:1002600081E00E94A00381EC90E00E94F40360E032
:1002700081E00E9428048FEC90E00E94F4036CE27D
:1002800071E080E090E00E94740681E00E94A0038B
:100290008DED90E00E94F40380E594E10E9419073F
:1002A0006CE271E080E090E00E94740681E00E94C0
:1002B000A0038BEE90E00E94F40380E00E94E10432
:1002C00024EF31E0AC01429FC001439F900D529F4B
:1002D000900D11246FEF73E00E9472084B018B01A7
:1002E00065E080E00E942804282D392D40E050E090
:1002F00060E070E080E090E00E942F0481EF90E0E9
:100300000E94F4030F311105D8F041E062E082E071
:100310000E94930560E081E00E94280484EF90E051
:100320000E94F4036AE080E00E94280483E00E94B7
:10033000B90368EC70E080E090E00E9474060CC0A5
:100340006AE080E00E94280485E00E94B90340E052
:1003500062E082E00E94930587E00E94E1048F3F03
:10036000934009F56CE080E00E94280484E00E943C
:10037000B9036FE080E00E94280486E00E94B90380
:1003800041E063E082E00E9493050F31110558F5CA
:100390009C9929C060E081E00E94280486E091E0F9
:1003A0000E94F40320C06CE080E00E94280485E0F5
:1003B0000E94B9036FE080E00E94280482E00E945E
:1003C000B90340E063E082E00E9493050F3111051C
:1003D00050F49C9908C060E081E00E94280486E106
:1003E00091E00E94F4039C9B18C060E081E00E94B1
:1003F000280486E291E00E94F40341E065E082E097
:100400000E94930568EC70E080E090E00E94740622
:1004100040E065E082E00E94930561E082E00E9496
:10042000CC044BCFF39481E00E94A00386E391E0DB
:100430000E94F40368E081E00E94280480E00E94AA
:10044000B90366E970E080E090E00E94740641E044
:1004500065E082E00E9493056CE271E080E090E04C
:100460000E94740640E065E082E00E94930583E00C
:100470008F1508F4CDCE81E00E94A00386E491E0C0
:100480000E94F40364E670E080E090E00E9474064D
:1004900081E00E94A00380EA90E00E94F40360E003
:1004A00081E00E94280400E010E0B4CEEE2071F05C
:1004B0009801220F331F000F111F000F111F000F93
:1004C000111F200F311FC20ED31E02C0EE24E39471
:1004D000282F30E040E050E060E070E080E090E005
:1004E0000E942F04860196CE81E00E94A00387E53A
:1004F00091E00E94F40360E081E00E94280487E616
:1005000091E00E94F40360E273E080E090E00E94DA
:10051000740681E00E94A00368E081E00E94280444
:1005200080E00E94B90360E082E00E94C804FBCF33
:100530000F931F93CF93DF93CDB7DEB728970FB6F6
:10054000F894DEBF0FBECDBF84E0898385E08A8347
:1005500086E08B8387E08C831D8281E08E8382E03E
:100560008F8383E0888710E012C0E1E0F0E0EC0FB9
:10057000FD1FE10FF11D008140E0602F81E00E942E
:10058000220541E0602F81E00E9493051F5F143037
:1005900060F310E012C0E5E0F0E0EC0FFD1FE10FAA
:1005A000F11D008141E0602F83E00E94220541E0BF
:1005B000602F83E00E9493051F5F143060F328963C
:1005C0000FB6F894DEBF0FBECDBFDF91CF911F9164
:1005D0000F910895AF92BF92CF92DF92EF92FF9268
:1005E0000F931F93CF93DF93CDB7DEB728970FB646
:1005F000F894DEBF0FBECDBF84E0898385E08A8397
:1006000086E08B8387E08C831D8281E08E8382E08D
:100610008F8383E08887B12C3BC0CB2CD12CE5E0C5
:10062000F0E0EC0FFD1FEC0DFD1DA08040E06A2DF9
:1006300083E00E94930510E023C0E12EF12CE1E05D
:10064000F0E0EC0FFD1FEE0DFF1D0081602F81E03B
:100650000E940406811113C0C701880F991F880FDB
:10066000991F805A9F4FFC01EC0DFD1D1081602FDA
:1006700081E00E9404068823D1F3812F0DC01F5F03
:100680001430D8F241E06A2D83E00E949305B394C0
:1006900083E08B1510F68FEF28960FB6F894DEBF27
:1006A0000FBECDBFDF91CF911F910F91FF90EF90C3
:1006B000DF90CF90BF90AF9008950F931F93CF938B
:1006C000DF9300D000D0CDB7DEB7082F83E0898359
:1006D00084E08A8385E08B8386E08C8310E014C0FD
:1006E000402F50E0012E02C0559547950A94E2F73D
:1006F0004170E1E0F0E0EC0FFD1FE10FF11D6081C2
:1007000080E00E9493051F5F143050F30F900F900C
:100710000F900F90DF91CF911F910F91089541E0BD
:1007200062E080E00E9493058FE39FE10197F1F77B
:1007300000C0000040E062E080E00E949305089560
:10074000CF93C82F40E061E080E00E9493058C2F9A
:1007500082958F700E945D030E948F0385E08A95C9
:10076000F1F700008C2F0E945D030E948F03CF9150
:100770000895CF93C82F41E061E080E00E94930587
:100780008C2F82958F700E945D030E948F0385E0FD
:100790008A95F1F700008C2F0E945D030E948F0361
:1007A000CF9108952FEF83EF91E02150804090404A
:1007B000E1F700C0000082E00E945D030E948F0309
:1007C00082E00E945D030E948F0388E00E945D0327
:1007D0000E948F038CE00E94A00381E00E94A0038E
:1007E00086E00E94A00308950F931F93CF938C017E
:1007F000C0E003C00E94B903CF5FF801EC0FF11D08
:1008000080818111F7CFCF911F910F9108950F93A0
:100810001F93CF93DF938B0190E00896880F880F8A
:10082000880F0E94A003C0E0D0E007C0F801EC0FE1
:10083000FD1F80810E94B9032196C830D105B4F311
:1008400080E80E94A003DF91CF911F910F9108953E
:100850008111605C80E8860F0E94A00308952F92AA
:100860003F924F925F926F927F928F929F92AF9240
:10087000BF92CF92DF92EF92FF920F931F93CF938D
:10088000DF93CDB7DEB7E5970FB6F894DEBF0FBEA6
:10089000CDBF2BAB3CAB4DAB852E762E672E382EC5
:1008A000292EA0E00E94E50819F480E30E94B90314
:1008B000912C34C0492C092C000C55080F2EFAE05D
:1008C000AF2EF02DB12CC12CD12CE12CF12C00E05D
:1008D00010E02BA93CA94DA9582D672D762D832D0D
:1008E000922D0E948608E1E0F0E0EC0FFD1FE40D80
:1008F000F51D205D20832BA93CA94DA9582D672DFE
:10090000762D832D922D0E9488082BAB3CAB4DABEE
:10091000852E762E672E382E292E93942BA93CA94E
:100920004DA9582D672D762D832D922DA0E00E9484
:10093000E50809F0BFCF9A940CC0E1E0F0E0EC0FBD
:10094000FD1FE90DF11D97FCFA9580810E94B90306
:100950009A94992094F7E5960FB6F894DEBF0FBEEF
:10096000CDBFDF91CF911F910F91FF90EF90DF905E
:10097000CF90BF90AF909F908F907F906F905F903F
:100980004F903F902F90089541E00E9422050895D6
:1009900041E00E94930508950E94320608950E9446
:1009A0004900FDCF40E0682F80E00E94220587B11A
:1009B0008F7787B987B1806487B986B18E6886B929
:1009C00008958770806487B986B1806486B9349B46
:1009D000FECF86B1806186B984B195B108951F922A
:1009E0000F920FB60F9211242F933F934F935F9363
:1009F0006F937F938F939F93AF93BF93EF93FF93E7
:100A000040E061E082E00E94930541E060E082E026
:100A10000E949305E0918601F091870187E791E0BC
:100A20000995FF91EF91BF91AF919F918F917F9128
:100A30006F915F914F913F912F910F900FBE0F904B
:100A40001F901895423008F06DC04130A1F58130FB
:100A500089F028F08230C9F0833011F108952AB36B
:100A600081E090E002C0880F991F6A95E2F7822B1F
:100A70008ABB089527B381E090E002C0880F991FD8
:100A80006A95E2F7822B87BB089524B381E090E05A
:100A900002C0880F991F6A95E2F7822B84BB0895E4
:100AA00021B381E090E002C0880F991F6A95E2F7B8
:100AB000822B81BB0895813091F028F08230D9F0EB
:100AC000833029F108952AB381E090E002C0880FB5
:100AD000991F6A95E2F7809582238ABB089527B310
:100AE00081E090E002C0880F991F6A95E2F7809537
:100AF000822387BB089524B381E090E002C0880F71
:100B0000991F6A95E2F78095822384BB089521B3EB
:100B100081E090E002C0880F991F6A95E2F7809506
:100B2000822381BB0895423008F06DC04130A1F5A9
:100B3000813089F028F08230C9F0833011F10895B6
:100B40002BB381E090E002C0880F991F6A95E2F70D
:100B5000822B8BBB089528B381E090E002C0880F00
:100B6000991F6A95E2F7822B88BB089525B381E02F
:100B700090E002C0880F991F6A95E2F7822B85BB2F
:100B8000089522B381E090E002C0880F991F6A9512
:100B9000E2F7822B82BB0895813091F028F08230F9
:100BA000D9F0833029F108952BB381E090E002C0A1
:100BB000880F991F6A95E2F7809582238BBB089571
:100BC00028B381E090E002C0880F991F6A95E2F790
:100BD0008095822388BB089525B381E090E002C010
:100BE000880F991F6A95E2F78095822385BB089547
:100BF00022B381E090E002C0880F991F6A95E2F766
:100C00008095822382BB0895813079F028F082306C
:100C1000A9F08330E1F024C089B390E002C095953B
:100C200087956A95E2F78170089586B390E002C0D7
:100C3000959587956A95E2F78170089583B390E062
:100C400002C0959587956A95E2F78170089580B303
:100C500090E002C0959587956A95E2F781700895B6
:100C600080E00895813089F028F08230C9F0833027
:100C700011F108952BB381E090E002C0880F991F15
:100C80006A95E2F782278BBB089528B381E090E054
:100C900002C0880F991F6A95E2F7822788BB0895E2
:100CA00025B381E090E002C0880F991F6A95E2F7B2
:100CB000822785BB089522B381E090E002C0880FAF
:100CC000991F6A95E2F7822782BB089593B7987FB0
:100CD00093BF93B7892B83BF089583B7887F83BF62
:100CE00083B7816083BF08958F929F92AF92BF9226
:100CF000CF92DF92EF92FF920E94E4072FE632E15B
:100D000043E85FE30E9443070E94B5074B015C0183
:100D1000C12CD12C76010EC083E00E94660608B675
:100D200000FEFDCF8FEFC81AD80AE80AF80A88B784
:100D3000816088BFC814D904EA04FB0468F383E027
:100D40000E946D06FF90EF90DF90CF90BF90AF9024
:100D50009F908F9008951F920F920FB60F921124BB
:100D60002F933F934F935F936F937F938F939F93B3
:100D7000AF93BF93EF93FF93E0918A01F0918B01C2
:100D80000995FF91EF91BF91AF919F918F917F91C5
:100D90006F915F914F913F912F910F900FBE0F90E8
:100DA0001F9018951F920F920FB60F9211242F9338
:100DB0003F934F935F936F937F938F939F93AF93E3
:100DC000BF93EF93FF93E0918801F091890109951A
:100DD000FF91EF91BF91AF919F918F917F916F9113
:100DE0005F914F913F912F910F900FBE0F901F90E9
:100DF00018958FB580688FBD8FB58F7B8FBD8FB5F0
:100E00008E7F8FBD8FB582608FBD8EB588608EBDA1
:100E10008EB580618EBD80E49CE997BD86BD8EB5A0
:100E20008E7F8EBD8EB582608EBD8EB58B7F8EBD62
:100E300008959BBD8ABD08951F920F920FB60F9221
:100E400011242F933F934F935F936F937F938F93CF
:100E50009F93AF93BF93EF93FF93E0918C01F09139
:100E60008D010995FF91EF91BF91AF919F918F9166
:100E70007F916F915F914F913F912F910F900FBE96
:100E80000F901F9018950E9457070C9438080E94E5
:100E9000310858F00E942A0840F029F45F3F29F0F9
:100EA0000C94210851110C946C080C9427080E9492
:100EB000490868F39923B1F3552391F3951B550B1A
:100EC000BB27AA2762177307840738F09F5F5F4F1D
:100ED000220F331F441FAA1FA9F335D00E2E3AF05C
:100EE000E0E832D091505040E695001CCAF72BD074
:100EF000FE2F29D0660F771F881FBB1F26173707C5
:100F00004807AB07B0E809F0BB0B802DBF01FF27F6
:100F100093585F4F3AF09E3F510578F00C942108AA
:100F20000C946C085F3FE4F3983ED4F38695779574
:100F30006795B795F7959F5FC9F7880F911D9695AF
:100F4000879597F90895E1E0660F771F881FBB1F0B
:100F5000621773078407BA0720F0621B730B840BB8
:100F6000BA0BEE1F88F7E09508950E94510888F0AB
:100F70009F5798F0B92F9927B751B0F0E1F0660F5D
:100F8000771F881F991F1AF0BA95C9F714C0B1309E
:100F900091F00E946B08B1E008950C946B08672FE4
:100FA000782F8827B85F39F0B93FCCF386957795CD
:100FB0006795B395D9F73EF49095809570956195B6
:100FC0007F4F8F4F9F4F0895E89409C097FB3EF4E1
:100FD00090958095709561957F4F8F4F9F4F992386
:100FE000A9F0F92F96E9BB279395F6958795779504
:100FF0006795B795F111F8CFFAF4BB0F11F460FFC4
:101000001BC06F5F7F4F8F4F9F4F16C0882311F01B
:1010100096E911C0772321F09EE8872F762F05C02F
:10102000662371F096E8862F70E060E02AF09A95CA
:10103000660F771F881FDAF7880F9695879597F9BF
:10104000089597F99F6780E870E060E008959FEF4A
:1010500080EC089500240A9416161706180609064F
:10106000089500240A94121613061406050608951E
:10107000092E0394000C11F4882352F0BB0F40F4A6
:10108000BF2B11F460FF04C06F5F7F4F8F4F9F4FE6
:10109000089557FD9058440F551F59F05F3F71F068
:1010A0004795880F97FB991F61F09F3F79F08795CF
:1010B0000895121613061406551FF2CF4695F1DF58
:1010C00008C0161617061806991FF1CF86957105E8
:1010D000610508940895E894BB2766277727CB011C
:1010E00097F90895AA1BBB1B51E107C0AA1FBB1F9C
:1010F000A617B70710F0A61BB70B881F991F5A95A4
:10110000A9F780959095BC01CD010895689401C020
:10111000E8948F929F92CF93DF930E949408DF917F
:10112000CF919F908F90089588249924F401E40131
:10113000B0E49F93AA279A158B049C04ED05FE0545
:10114000CF05D007A10798F4AD2FDC2FCF2FFE2FAE
:10115000E92D982C892E982F872F762F652F542FC5
:10116000432F322F2227B85031F7BF9127C01B2EB3
:10117000BF91BB27220F331F441F551F661F771FC8
:10118000881F991F881C991CEE1FFF1FCC1FDD1F95
:10119000AA1FBB1F8A149B04EC05FD05CE05DF05C5
:1011A000A007B10748F08A189B08EC09FD09CE0991
:1011B000DF09A00BB10B21601A94E1F62EF4940123
:1011C000AF01BE01CD01000C08950024A7FD0094DD
:1011D0002A1730054005500560057005800590050B
:0611E0000895F894FFCF12
:1011E6000708092F0405062A0102032D43003D2B9B
:1011F6000E11111F1B1B1F000E10101F1B1B1F00A3
:10120600150E1F1F1F0E150008141C1407040700D7
:10121600150E1F1F1F0E0400080406060408000012
:10122600456E7465722050617373776F72643A000D
:10123600436F72726563742050617373776F726463
:1012460000202057454C434F4D4520544F20002049
:1012560020534D41525420484F4D4521004741549B
:1012660045204F50454E532E2E2E0054656D703A34
:101276000027430054656D7020496E637265617383
:10128600656421202000476F6F64204E696768748B
:10129600202020202000476F6F64204D6F726E69FA
:1012A6006E6720202000474153204445544543544F
:1012B60045442120200057726F6E6720506173737A
:1012C600776F72642000506C656173652054727983
:1012D60020416761696E00596F75277665206578CC
:1012E600636565646564004E756D626572206F6640
:1012F600207472696573004E6F772041444320491C
:06130600535228290000EB
:00000001FF
